{
  "contractName": "MyFirstContract",
  "abi": [
    {
      "constant": true,
      "inputs": [],
      "name": "balance",
      "outputs": [
        {
          "name": "",
          "type": "uint256"
        }
      ],
      "payable": false,
      "stateMutability": "view",
      "type": "function"
    },
    {
      "inputs": [],
      "payable": false,
      "stateMutability": "nonpayable",
      "type": "constructor"
    },
    {
      "constant": true,
      "inputs": [],
      "name": "getBalance",
      "outputs": [
        {
          "name": "",
          "type": "uint256"
        }
      ],
      "payable": false,
      "stateMutability": "view",
      "type": "function"
    }
  ],
  "bytecode": "0x608060405234801561001057600080fd5b50606460008190555060d9806100276000396000f3fe6080604052600436106049576000357c0100000000000000000000000000000000000000000000000000000000900463ffffffff16806312065fe014604e578063b69ef8a8146076575b600080fd5b348015605957600080fd5b506060609e565b6040518082815260200191505060405180910390f35b348015608157600080fd5b50608860a7565b6040518082815260200191505060405180910390f35b60008054905090565b6000548156fea165627a7a72305820ba4ba3044b52e83703572205dbb7b13d0feff9b33aaac94a1ffed5affe8966250029",
  "source": "pragma solidity ^0.5.0;\n\n\ncontract MyFirstContract {\n  uint public balance;\n\n  constructor() public {\n    balance = 100;\n  }\n\n  function getBalance() public view returns(uint) {\n    return balance;\n  }\n}\n",
  "sourcePath": "/home/raghukul/academics/cs731/blockchain_projects/midsem/q8/contract/MyFirstContract/contracts/MyFirstContract.sol",
  "compiler": {
    "name": "solc",
    "version": "0.5.0+commit.1d4f565a.Emscripten.clang"
  },
  "schemaVersion": "3.0.2",
  "updatedAt": "2019-02-15T13:31:36.657Z",
  "devdoc": {
    "methods": {}
  },
  "userdoc": {
    "methods": {}
  }
}